:020000040000fa
:080000000002040000000000f2
:020000040000fa
:0400080014030000dd
:020000040000fa
:04000c0014030000d9
:020000040000fa
:0400100014030000d5
:020000040000fa
:0400140014030000d1
:020000040000fa
:0400180014030000cd
:020000040000fa
:04001c0014030000c9
:020000040000fa
:0400200014030000c5
:020000040000fa
:0400240014030000c1
:020000040000fa
:0400280014030000bd
:020000040000fa
:04002c0014030000b9
:020000040000fa
:0400300014030000b5
:020000040000fa
:04003400e4020000e2
:020000040000fa
:0400380014030000ad
:020000040000fa
:04003c0014030000a9
:020000040000fa
:0400400014030000a5
:020000040000fa
:0400440014030000a1
:020000040000fa
:04004800140300009d
:020000040000fa
:04004c001403000099
:020000040000fa
:040050001403000095
:020000040000fa
:040054001403000091
:020000040000fa
:04005800140300008d
:020000040000fa
:04005c001403000089
:020000040000fa
:040060001403000085
:020000040000fa
:040064001403000081
:020000040000fa
:04006800140300007d
:020000040000fa
:04006c001403000079
:020000040000fa
:040070001403000075
:020000040000fa
:040074001403000071
:020000040000fa
:04007800140300006d
:020000040000fa
:04007c001403000069
:020000040000fa
:040080001403000065
:020000040000fa
:040084001403000061
:020000040000fa
:04008800140300005d
:020000040000fa
:04008c001403000059
:020000040000fa
:040090001403000055
:020000040000fa
:040094001403000051
:020000040000fa
:04009800140300004d
:020000040000fa
:04009c001403000049
:020000040000fa
:0400a0001403000045
:020000040000fa
:0400a4001403000041
:020000040000fa
:0400a800140300003d
:020000040000fa
:0400ac001403000039
:020000040000fa
:0400b0001403000035
:020000040000fa
:0400b4001403000031
:020000040000fa
:0400b800140300002d
:020000040000fa
:0400bc001403000029
:020000040000fa
:0400c0001403000025
:020000040000fa
:0400c4001403000021
:020000040000fa
:0400c800140300001d
:020000040000fa
:0400cc001403000019
:020000040000fa
:0400d0001403000015
:020000040000fa
:0400d4001403000011
:020000040000fa
:0400d800140300000d
:020000040000fa
:0400dc001403000009
:020000040000fa
:0400e0001403000005
:020000040000fa
:0400e4001403000001
:020000040000fa
:0400e80014030000fd
:020000040000fa
:0400ec0014030000f9
:020000040000fa
:0400f00014030000f5
:020000040000fa
:0400f40014030000f1
:020000040000fa
:0400f80014030000ed
:020000040000fa
:0400fc0014030000e9
:020000040000fa
:0401000014030000e4
:020000040000fa
:0401040014030000e0
:020000040000fa
:0401080014030000dc
:020000040000fa
:04010c0014030000d8
:020000040000fa
:0401100014030000d4
:020000040000fa
:0401140014030000d0
:020000040000fa
:0401180014030000cc
:020000040000fa
:04011c0014030000c8
:020000040000fa
:0401200014030000c4
:020000040000fa
:0401240014030000c0
:020000040000fa
:0401280014030000bc
:020000040000fa
:04012c0014030000b8
:020000040000fa
:0401300014030000b4
:020000040000fa
:0401340014030000b0
:020000040000fa
:0402080014030000db
:020000040000fa
:04020c0014030000d7
:020000040000fa
:0402100014030000d3
:020000040000fa
:0402140014030000cf
:020000040000fa
:0402180014030000cb
:020000040000fa
:04021c0014030000c7
:020000040000fa
:0402200014030000c3
:020000040000fa
:0402240014030000bf
:020000040000fa
:0402280014030000bb
:020000040000fa
:04022c0014030000b7
:020000040000fa
:0402300014030000b3
:020000040000fa
:04023400e4020000e0
:020000040000fa
:0402380014030000ab
:020000040000fa
:04023c0014030000a7
:020000040000fa
:0402400014030000a3
:020000040000fa
:04024400140300009f
:020000040000fa
:04024800140300009b
:020000040000fa
:04024c001403000097
:020000040000fa
:040250001403000093
:020000040000fa
:04025400140300008f
:020000040000fa
:04025800140300008b
:020000040000fa
:04025c001403000087
:020000040000fa
:040260001403000083
:020000040000fa
:04026400140300007f
:020000040000fa
:04026800140300007b
:020000040000fa
:04026c001403000077
:020000040000fa
:040270001403000073
:020000040000fa
:04027400140300006f
:020000040000fa
:04027800140300006b
:020000040000fa
:04027c001403000067
:020000040000fa
:040280001403000063
:020000040000fa
:04028400140300005f
:020000040000fa
:04028800140300005b
:020000040000fa
:04028c001403000057
:020000040000fa
:040290001403000053
:020000040000fa
:04029400140300004f
:020000040000fa
:04029800140300004b
:020000040000fa
:04029c001403000047
:020000040000fa
:0402a0001403000043
:020000040000fa
:0402a400140300003f
:020000040000fa
:0402a800140300003b
:020000040000fa
:0402ac001403000037
:020000040000fa
:0402b0001403000033
:020000040000fa
:0402b400140300002f
:020000040000fa
:0402b800140300002b
:020000040000fa
:0402bc001403000027
:020000040000fa
:0402c0001403000023
:020000040000fa
:0402c400140300001f
:020000040000fa
:0402c800140300001b
:020000040000fa
:0402cc001403000017
:020000040000fa
:0402d0001403000013
:020000040000fa
:0402d400140300000f
:020000040000fa
:0402d800140300000b
:020000040000fa
:0402dc001403000007
:020000040000fa
:0402e0001403000003
:020000040000fa
:0402e40014030000ff
:020000040000fa
:0402e80014030000fb
:020000040000fa
:0402ec0014030000f7
:020000040000fa
:0402f00014030000f3
:020000040000fa
:0402f40014030000ef
:020000040000fa
:0402f80014030000eb
:020000040000fa
:0402fc0014030000e7
:020000040000fa
:0403000014030000e2
:020000040000fa
:0403040014030000de
:020000040000fa
:0403080014030000da
:020000040000fa
:04030c0014030000d6
:020000040000fa
:0403100014030000d2
:020000040000fa
:0403140014030000ce
:020000040000fa
:0403180014030000ca
:020000040000fa
:04031c0014030000c6
:020000040000fa
:0403200014030000c2
:020000040000fa
:0403240014030000be
:020000040000fa
:0403280014030000ba
:020000040000fa
:04032c0014030000b6
:020000040000fa
:0403300014030000b2
:020000040000fa
:0403340014030000ae
:020000040000fa
:10040000cfb921000e7f22000e01880000000000fd
:10041000000020000000e000020032000001200087
:100420002002880014000700810007000000e0009f
:1004300003003a002042260001002000020037009d
:100440000000200001002000810f70000100320038
:1004500014000700000020000000e000020032004d
:1004600000000200000000008a630200000000009b
:100470000040da000000fe004440a9008013200084
:100480000000e0000300320000002000a00188000e
:100490004440a800000006008a1f78008b1f7800e7
:1004a0000000060091018800800478000000eb0045
:1004b0001a003700e284440032a0b4009905ba0063
:1004c000e284440032a0b4009906ba00e2844400f9
:1004d00032a0b4000006eb00476fde00fd07b2005b
:1004e000636ce10003003a00ebff07000000eb0043
:1004f0000a003700606ce10004003a00005deb0088
:100500008b05e900fdff3e00040037006168e10053
:10051000010032000086eb000b00070019c7ba008b
:100520001905ba000e04e00003003a000a00e000da
:10053000e0ff3a0000000600fe07b2009e018800be
:100540008a047800f5ff3700395dba008b05e900b1
:100550000c003200295dba008b05e900080032006a
:100560000c00e00003003a00e284440032a0b40032
:10057000f5ff370019ddba008b05e900faff3a00f4
:100580008904e800e184440032a0b40000000600c1
:10059000b8250400000000009c5404000000000086
:1005a0000260040000000000065f0400000000007c
:1005b000e25f040000000000985f040000000000fb
:1005c000e65e0400000000003600f800809fbe00d8
:1005d000829fbe00849fbe00869fbe003400f8004c
:1005e00000002000a00188000000fa008460a9003b
:1005f000fb0d07000000e000030032007c640200f5
:1006000000000000000000000080fa003400f90043
:100610004f03be004f02be004f01be004f00be00a0
:100620003600f900004006000040da000000fe003d
:10063000000005006022b800060220000000d00083
:100640008180d2000482d2008582d2000000a00006
:100650000202520083825a0003003100020242006b
:1006600083824a000000a1000603e900f3ff3a007c
:10067000000006000000fa0068815700cfb897001c
:100680004d0207000080fa0000000600710007001c
:10069000c90007007a010700a2010700fb0007005c
:1006a0009d020700480237008001780002003700f1
:1006b000b15978000201e9000200e000fcff3a00b5
:1006c00000000600889fbe008a9fbe00800478005c
:1006d0000200e0005b00320001407800814c7800ad
:1006e00082814400f1f99f00e20f5100550036006d
:1006f00091449800a1449800e1f99f00d1f99f002e
:10070000e60f51004f003600b1449800c1f99f0038
:10071000e80f51004b0036000905ea00630565004b
:100720000a8444000a055100c1ff2f00010565003d
:100730000080fb008000eb0012102000131020004e
:100740007b050700008cbe000a01440060b99f00d1
:1007500071b99f00e80f55003a0036002004980058
:1007600031049800400498005104980020b99f007b
:1007700031b99f0040b99f0051b99f00f80f550053
:10078000300036006004980071049800000c980056
:10079000110c9800200c9800310c9800400c980027
:1007a000510c980020b19f0031b19f0040b19f00d3
:1007b00051b19f0060b19f0071b19f0000b99f00cf
:1007c00011b99f00640164007801410002044400f3
:1007d000020555006011b8000203be000002be0011
:1007e0000403be006022b800000072008180720025
:1007f000020173008381730010003700009cbe006b
:100800000294be00400498005104980062049800cd
:1008100073049800000c9800110c9800220c9800aa
:10082000330c9800400c9800510c9800620c980012
:10083000730c98000a02b1000802b000ff0f5500c7
:10084000eeff3e00090078004f05be004f04be00d9
:1008500000000600ec874700889fbe008a9fbe000c
:100860008c9fbe008e1f780000067800010478007f
:10087000180790002805900098067800cdb79f00d3
:10088000b80590003202be002203be000400be0084
:100890000601be004f18de006011b8008000eb00ba
:1008a000d0b79f00e1b79f00f2b79f0083bf9f00c2
:1008b000800478000900e000060032006000b80003
:1008c0006011b800040250008582580006035900e8
:1008d000878359000e00e000020035000d10a100d2
:1008e000cdb79f000900e00005003a004fb0970027
:1008f0000028a30002003a000038a30002003200e2
:100900008a00e900010037008a007800f88157006a
:10091000a200200008007800860007000900e0001f
:1009200003003a00cfb097000128a300080032006e
:100930000000e90000814500b1c2b3000900e000f9
:1009400001003200d1c2b300014978000500370030
:100950000138a300030032000000e90001c2b30027
:1009600081757800480190000201e9000001510002
:10097000808045004fb297008a0178000c00780013
:10098000300207009c0090000188a30004003200a0
:1009900098009000810f500001003d000100780098
:1009a0004f0778004f06be004f05be004f04be0043
:1009b000cf00b100000006000200fa00889fbe00d0
:1009c0008a9fbe008005780001047800020078004c
:1009d000180190002805900098007800b1bf9f0092
:1009e000b80490000200e000020035000110a100f0
:1009f000b1bf9f00ea815700820020008a00780082
:100a00003002be002003be00080078004900070045
:100a10003fb99700f0006100030032000000e900d8
:100a200001c3b300817478003fb99700e80061000a
:100a3000030032000000e90001c2b30081747800b5
:100a4000480190000201e90000015100808044004b
:100a50003fba97008a0178000b007800f90107007f
:100a60009b0090000188a3000400320098009000d1
:100a7000810f500001003d00010078004f05be00cd
:100a80004f04be000080fa0000000600ea8747001d
:100a9000889fbe008a9fbe008e1f780000047800e9
:100aa000030078007287570084e2260055c72600ad
:100ab000049fbe00c3962200030f78006c87570086
:100ac000004feb0011059000a10490009105780003
:100ad0000200e00002003200020778000100370047
:100ae000728757000000e00002003a000e00780014
:100af000e30307000a00e000030035008a0f5000fe
:100b0000010036000a0078000b02780089017800a5
:100b1000000178008e00780008007800c901070005
:100b20004f0778004f05be004f04be00af00b10074
:100b300000000600f4874700889fbe008a9fbe0021
:100b40008c9fbe008e1f78000605be000404be0008
:100b500081bf9f0082b79f00f3b79f00b000900055
:100b6000e1b79f001301780092b79f0090069000b4
:100b7000400090000000e900000678000d00e00051
:100b800001003d001d0020008040eb00efb1970008
:100b9000817178001e0020001f0037000c06e9005c
:100ba0000fb09700cf80de006109b900a0b79f00a9
:100bb000b1b79f00c2b79f00d3b79f000203be002a
:100bc0000002be000800be000a01be00fe040700cd
:100bd000000778000e4078000043b000efb09700a7
:100be00080707e008d06e9000fb997000201e900d0
:100bf00082bf9f002fb29700bfb297004fb39700fc
:100c0000dfb397000800be000a01be00e70407003a
:100c10000205be000004be000c00e0000d00340020
:100c2000e00f5400e08f5c00e00f5d00e08f5d009e
:100c3000daff3a000d00e000d8ff3c008fb99700c2
:100c40000300e000030034001fb097000018a30069
:100c5000d2ff3a000e00e00002003a00ffb0970019
:100c60001140a1000c0078004f0778004f06be002d
:100c70004f05be004f04be004f01b100000006004a
:100c80000200fa00889fbe008a9fbe00000578001f
:100c9000010478000200780018019000a804900078
:100ca00098007800b1bf9f00b80590000200e000f6
:100cb000020035000110a100b1bf9f00ea8157007a
:100cc000a2002000890078003002be002003be0090
:100cd0000800780097ff0700480190000201e90032
:100ce00000015100808045003fba970089017800db
:100cf0000a007800530107009a0090000188a300c1
:100d00000400320098009000810f500001003d0067
:100d1000010078004f05be004f04be000080fa00bd
:100d200000000600fa874700889fbe008a9fbe0029
:100d30008c9fbe008e1f780080047800010478002c
:100d400082057800180190002805900018077800a7
:100d5000b80090000200e000020035000e10a10073
:100d6000010037001200200070006700e0b79f000c
:100d7000090032003b02be002b03be00e00f520010
:100d8000e08f5a00e00f5b00e08f5b000200320052
:100d90008a86e900010037008a067800e8026700c9
:100da000f5b79f00010032008d06e9003b02be004e
:100db0002b03be00e4af9f00f5af9f0086b79f00f6
:100dc00097b79f00480690000c06e9000040eb0032
:100dd00080707e00efb297007fb2970089037800a1
:100de00081047800d8af9f00020478008bbf9f0079
:100df0008a057800034578002a0037000c06e900d0
:100e00006fab97006f006300e90f500002003c00d9
:100e10000003b000010037007005b0000a03fb00ba
:100e20001604b100f90f53000c003e0000037800d7
:100e30000650a0001606b100f90f530007003e004f
:100e4000b4b79f00a5b79f00c7b79f002b0307004b
:100e5000cfb39700afb297003fb2970080747e0087
:100e60000804e9008d06e9006fa89700ffa8970025
:100e70000fb197009fb19700460020008301d10079
:100e80000281d3008180d3000080d3000603e900f3
:100e9000faff3a00e0af9f00f1af9f0082b79f00da
:100ea00093b79f00e10f56000f0034006fa8970022
:100eb000ffa897000fb197009fb19700e00f500077
:100ec000e08f5800e00f5900e08f5900cbff3a0047
:100ed0000800e000c9ff3c000d00e0000200340003
:100ee0000e18a300c5ff3a0089007800f4b79f00f0
:100ef000870478005fac97008a4178000b05780082
:100f00008fbd97000500e000100032003b02be00dc
:100f10002b03be00e4af9f00f5af9f0086b79f0094
:100f200097b79f00e00f5200e08f5a00e00f5b0080
:100f3000e08f5b00050032000c06e90083707e0044
:100f40000c06e90000c3b30080707e00ffb297007a
:100f50000500e000030032000c06e90000c2b30007
:100f600080707e00480190000201e9000c015100f0
:100f70008c8040000e0278008a0178000900780019
:100f8000b0000700990090000188a300040032001f
:100f900098009000810f500001003d000100780092
:100fa0004f0778004f06be004f05be004f04be003d
:100fb000af01b10000000600820178000101780055
:100fc000f1ff2700d402370084082000848f5000ee
:100fd0001d0032000d003c0014082000848f5000da
:100fe0002700320002003c00040820000400370003
:100ff00024082000848f5000340032004408200070
:10100000848f500043003a0036003700040a200065
:10101000848f50002700320004003c0004092000a7
:10102000848f50003b003a0028003700020c20005b
:10103000828f50002f003200020f2000828f50005c
:1010400034003a002b0037009380e9000200e000f2
:1010500005003200810978001102fb00cfa2de00fa
:10106000612bb9002800370081097800114278000f
:101070000482fb008002eb006033b80022003700de
:1010800013027800e40052000200e0000500320084
:10109000810978001102be004fabde0086037800a4
:1010a00019003700810978001102be006033b800d2
:1010b000150037009380e90081097800110278005b
:1010c000cfa2de00612bb9000f0037009302780039
:1010d000e8805200810978003102be002103be0081
:1010e000090037009380e9000200e00002003200ae
:1010f000f1ff37009380e900810978001102780040
:101100008002eb006033b8000498be000690be0079
:10111000100005000000050044082000848f5000e6
:101120002500320008003c0014082000848f500085
:101130001400320024082000848f50002400320064
:10114000040820000c00370004092000848f5000a0
:101150001f00320004003c0084082000848f5000ef
:1011600024003a000e003700040a2000848f50004b
:1011700011003200040c2000848f50001d003a0042
:101180000d0037009380e900810978009100780014
:1011900001087800cf91de008288be00140037007d
:1011a0009380e900810978009100780001087800b7
:1011b000824878000e0037009380e90081097800aa
:1011c0009100780001087800820878000800370054
:1011d0009380e90081097800910078000108780087
:1011e0006112b900612bb9008498be008690be00e0
:1011f0001000050000000500889fbe000004780074
:101200004800900082047800808f5400010036006e
:1012100080047800090178005800900022fd070042
:10122000580090000900400050049800c800900049
:1012300089845000490498000048eb004f04be0028
:1012400000000600f2874700889fbe008a9fbe000c
:101250008c9fbe008e1f7800800478000105780006
:1012600002047800830578006107620002003a00fa
:101270008b0f540008003900080178008a007800bc
:1012800009007800dcff07008b0f540002003900d2
:10129000880578001e003700088655000c0178008c
:1012a000f00f56000100360002012000010220006c
:1012b0007e80570003fd07008c067800050037008c
:1012c00002012000fe80570009007800caff0700d5
:1012d000f0865600ef8f5600f9ff3e004461de00b5
:1012e00000ff2f000091b90002014600fe80570068
:1012f00009007800c0ff07000e00e00004003a007b
:10130000080178008a00780009007800baff070019
:101310000b0078004f0778004f06be004f05be0057
:101320004f04be002f01b1000000060000000500c0
:101330000000050000000500000178000040eb00ff
:101340008080fb008180400043b8210063c27800a8
:101350000404e00003003a0050b8210060c07800a7
:101360000000060092017800934f520004003a00fa
:1013700050b8210060c078000309e8000100370080
:101380000040e800ea4f5000edff36000000060084
:10139000f6874700889fbe008a9fbe008c9fbe00d4
:1013a0008e1f78000005780001047800830578001e
:1013b000040678000000eb00c0b79f008080eb00bf
:1013c000d1b79f00e0b79f00f2b79f000008200050
:1013d00080bf9f0098007800010078008004eb0037
:1013e000010037008904e800304178000204e00081
:1013f0000300320053c2b300834f5100f9ff3a009b
:101400000900e00004003200090178000a007800b9
:1014100079ff0700188c44001807780050c2b30009
:101420009e4f10003f013a000e07e8000e0c7800b6
:1014300010003700cfb097000100a0000b0037006c
:10144000cfb097000110a00008003700cfb0970080
:101450000120a00005003700cfb097000130a000a8
:1014600002003700cfb097000140a000c1b79f0035
:10147000000ce8001800780090407800b2c2b30079
:1014800082cf5000f1ff320007003c0002c2b300df
:1014900082cf5000f0ff320032c2b30082cf500042
:1014a00007003a00efff3700d2c2b30082cf5000ee
:1014b000e0ff320002c3b30082cf5000e0ff3200f1
:1014c000a2c2b30082cf50000d003a00000ce80029
:1014d0001c80e900000e780010007800e0b79f0043
:1014e0000000e0000f003d00cfb097000100a20017
:1014f000c1b79f000000ea00e0b79f000900370075
:1015000039010700e0b79f0001003700000ce80038
:10151000180078009000fb000103b100e98f500033
:10152000faff36004fb097000008a3000200320017
:101530000010a100c0b79f0018007800e1c2b300fe
:1015400090cf100016003a008000eb00d1b79f004a
:101550000000e800000c7800a1c2b30090cf10009a
:1015600006003a00000ce8001c80e900000e78003c
:1015700010007800d0b79f00090037001a0107005b
:10158000d0b79f0001003700000ce8001800780079
:101590009000fb000103b100e98f5000faff360014
:1015a0000800780064ff0700804678001800780083
:1015b0001000fb004a01070091062000810f500037
:1015c0003800320012003c0041062000810f50001c
:1015d000340032000a003c0011062000810f500048
:1015e0002000320031062000810f5000a0003200a0
:1015f00051022000810f5000bc003a00b4003700b7
:1016000071062000810f5000b8003c0088003700b0
:1016100001072000810f50005c00320007003c00f1
:10162000e1062000810f50007a003200f106200010
:10163000810f5000ad003a003900370051072000fb
:10164000810f50002700320081072000810f5000d9
:101650004200320031072000810f5000a3003a0001
:101660008f0037008d80fb000c01780000fe2f00fa
:101670000f0040004d0107000000e000a80032000c
:1016800018007800000ce8009041780002fe2f005e
:101690000f014100f88057000a00780024ff07007e
:1016a0000e0037008d80fb008c01780012002000b6
:1016b00000fe2f000f00400043fe07000000e00086
:1016c00097003200180ce80002fe2f000f014100c5
:1016d000f88057000a0078005efc07008084440010
:1016e000900037008d80fb008c0178000001eb003a
:1016f00000fe2f000f00400033fe07000000e00056
:1017000087003200180ce80002fe2f000f01410094
:10171000f88057000a00780059fd0700efff3700f6
:101720008d80fb008c0178000001eb0000fe2f0093
:101730000f00400024fe07000000e00078003200a7
:10174000180ce80002fe2f000f014100f88057003e
:101750000a00780098fc0700e0ff37008d80fb004e
:101760008c0178000001eb0000fe2f000f0040000c
:1017700015fe07000000e000690032001800780044
:10178000000ce800904178001c0037008c017800c4
:101790000001eb00010f200000fe2f000f004000b1
:1017a00009fe07000000e0005d003200180ce800b0
:1017b0000fb097009fb097002fb19700bfb197006f
:1017c000e00f5000e08f5800e00f5900e08f590003
:1017d00009003a00cfb597006fb49700c0b7210059
:1017e000a70007000b02780088017800000178004c
:1017f000c1b721004700370083c7b30002fe2f00a6
:101800000f014100f88057000a00780045fd0700ed
:10181000b2ff37000b8144008d80fb008c01780003
:1018200000fe2f000f0040003bfe07003c00370089
:101830008d80fb000c01780000fe2f000f0040009f
:10184000da0007000000e0003500320018007800e0
:10185000000ce8009041780002fe2f000f014100cb
:10186000f88057000a007800b1fe07009bff3700a0
:1018700000c8b30080cf560029003a00180ce800d9
:101880001c80e900000e780010407800e0df9f0027
:1018900013002000e2fd2f000f0141000800370077
:1018a00000c8b30080cf56001d003a00180ce800b5
:1018b0001c80e900000e78008001eb001001780028
:1018c000f88057000a00780070fc070083ff37009b
:1018d00000c8b30080cf560011003a00180ce80091
:1018e0004fb29700efb19700080037000e0c780058
:1018f0000000eb00c0b79f00e0b79f000080eb0046
:10190000d0b79f000002eb00840178001200200095
:1019100021b821000a0078004afe07006fff370057
:10192000180ce800090078004f0778004f06be0049
:101930004f05be004f04be006f01b100000006005d
:101940008200fa00889fbe008a1f78000005780098
:1019500082047800c13f9f000004eb0010003700b4
:101960000902780088017800a2f72f000f014100da
:1019700081f72f008f8040000a00780084fe070066
:1019800008004000880f500004003d00b004200013
:10199000d0dc88000084eb000400370000047800ed
:1019a0004f3897001004e000edff3a00080078007f
:1019b0004f0578004f04be000080fa0000000600ca
:1019c000800078001000200002022000828f50006a
:1019d00004003200e9805000e48f5000010036001e
:1019e0000000eb0000000600889fbe008a1f780000
:1019f000000578000a047800984478000805e8009b
:101a00000900fb00eeff07000000e000f9ff3a00cc
:101a1000b0c2b30080cf540005003200d0c2b30082
:101a20008000eb0080cf540005003a000200370030
:101a30008000eb0001003700110020000804e800de
:101a40000000eb00030037006a02b90002005200f8
:101a50000003b0003801fb0003fd2f00828141002c
:101a6000e98f5100f8ff36000100e00001003a0064
:101a70000000ea004f0578004f04be000000060099
:101a800080007800040037003104e00002003a00d2
:101a90000000510000000600010178000108a300c9
:101aa000f9ff3a008101780031017800f4ef2f004e
:101ab000020242000281ea000201620004082800da
:101ac00004016100f7ff3200830078000101780013
:101ad0003104e000fdff3a00000051000000060064
:101ae000f1fb2f0080804000f98f500001003e0084
:101af0000050a00000000600f9ff3700f1f92f00a8
:101b000080804000f98f500001003e00f005b200d7
:101b100000000600f9ff3700f28747008e1f7800ab
:101b200002027800030178000000e00002003200a9
:101b30000007780001003700728757008002eb0031
:101b40000100e000010032008102e90070805700ce
:101b5000060009000018eb000080eb0080bf9f002a
:101b60002310200093bf9f00aebf9f00b1bf9f0016
:101b7000c5bf9f000100e00003003d00b10420004c
:101b8000d1dc880006003700004feb00eebf9f005d
:101b9000debf9f008400780070805700220007009d
:101ba0004f0778002f01b10000000600881f780061
:101bb0000004780000082000808f500017003500d6
:101bc00010082000808f50000b00340030082000e7
:101bd000808f500011003a00920078006880500019
:101be000000978003002be002003be00049cbe0045
:101bf0000694be000700370092027800648052000d
:101c0000000978001000be0015000700009cbe000f
:101c10000294be0010002000010037000000eb001d
:101c20004f047800000006000200fa00881f7800c8
:101c300000047800e2bf9f0064815700080078002c
:101c40003fff0700980090000148a3000100320008
:101c50000080eb004f0478000080fa0000000600ce
:101c6000810378001d0007000001be006000b8007d
:101c70000478a30013003a006220e10015003e0042
:101c80000d0039008301d1000281d3008180d3008f
:101c90008301d1000281d3008180d3008301d10070
:101ca0000281d3008180d3000538b000c42add0052
:101cb000f300b2008381720007f0a70003f0a000d8
:101cc0000000060083ff2700020020006110b90019
:101cd000f9ff370003ff2700f7ff3700c70ade00d0
:101ce000f107b200f50fb20008003200e1cf420068
:101cf000020032000170a00024000500810f700076
:101d0000010032000408050044000500810f700046
:101d100002003a00140005008502e90000004000be
:101d200081c04800fcff3b000170a00024000500ba
:101d3000020ab900001bb9000200b800810042008d
:101d40008100430000000600889fbe008a9fbe00fd
:101d500030044200b0844a0030054b0090854b00af
:101d60006000b1000898be000a90be000440e10087
:101d700005c8e10006d0e10007d8e100020031000b
:101d8000680040001008e8004f05be004f04be0088
:101d900000000600889fbe008a9fbe003004be007f
:101da0002005be000418540005985c0006185d006c
:101db00007985d00110020000440e10005c8e10023
:101dc00006d0e10007d8e100010039008000eb00f7
:101dd000108810004f05be004f04be000000060032
:101de0001200fa00889fbe008a9fbe008c9fbe0032
:101df000e0b79f00f1b79f0082bf9f0093bf9f0095
:101e00000605be000404be000000eb00d0b79f0032
:101e1000c0b79f00b0b79f00a0b79f0090b79f00ca
:101e2000000678005fb19700cfb0970082014100b3
:101e30003fb097000200e00004003d0037000700bb
:101e40007e805700c0ff0700030037003300070003
:101e50007e805700cfff0700dfb697000d00e0003f
:101e60000c0035006fb29700ffb297000fbb9700d0
:101e70009fbb970010002000010020006011b800f7
:101e80000002720081827200020373008383730078
:101e90001b0007000c06e80001042000810f56001b
:101ea000e0ff3a000d00e00004003d000802be0023
:101eb0000a03be007e805700a3ff07005fa89700bb
:101ec0000000e00005003a001fb29700afb2970093
:101ed0003fb39700cfb39700090007006fb097009a
:101ee000ffb097000fb997009fb997004f06be004b
:101ef0004f05be004f04be000080fa00000006003f
:101f00000100070000000600a4b79f00b5b79f00be
:101f1000c6b79f00d7b79f00000006004f09de003c
:101f200082817100b3b79f004f01de0081804000c5
:101f300082807000a1b79f008fb097004f09de002c
:101f4000000040000200700090b79f007fa897003b
:101f50004f01de00818040008280700081b79f00c9
:101f60000d0007004f3ade00000040000400700042
:101f7000f0af9f00080007000402420085824a007b
:101f800006034b0087834b00dfff07000802be00fb
:101f90000a03be00000006002fb29700bfb29700f0
:101fa0004fb39700dfb3970000000600881f78004a
:101fb00018002000881f780089ff07008f87e9003c
:101fc0004f04780000000600801feb0084ff07002c
:101fd0008f87e90000000600889fbe008a9fbe0030
:101fe000e00f5000e08f5800e00f5900e08f5900db
:101ff0000c003d006044b8006055b800000054007b
:1020000081805c0002015d0083815d00180020007a
:102010001500070008003d00180007000004eb0051
:10202000050037000004eb000f00070002003d0030
:102030001200070018002000dcff07000800e00085
:10204000060032006022b8006033b8000000520081
:1020500081805a0002015b0083815b004f05be0056
:102060004f04be0000000600e00f5200e08f5a004f
:10207000e00f5b00e08f5b00000006006044b800ea
:102080006055b8000402540085825c0006035d00c0
:1020900087835d0000000600889fbe008a9fbe0007
:1020a0008c1f7800e00f5000e08f5800e00f5900bf
:1020b000e08f59000d003d006044b8006055b80045
:1020c0000000540081805c0002015d0083815d009e
:1020d0001c0020000820e10009a8e1000ab0e1008e
:1020e0000bb8e1000d003d00080037000006eb00d2
:1020f000e00f5200e08f5a00e00f5b00e08f5b00c2
:1021000006003d006044b8006055b8000402540069
:1021100085825c0006035d0087835d00aaff0700df
:102120000c00e000060032006022b8006033b80006
:102130000000520081805a0002015b0083815b0035
:102140004f0678004f05be004f04be000000060099
:020000040000fa
:102150005b5700004154000043480000444f00001a
:10216000475d0000205300006973000074650000a3
:102170006d6100002061000074690000766f00004e
:102180002e0d00000a0000000a4100004c4500002e
:1021900052540000413a000020540000656d0000d8
:1021a00070650000726100007475000072610000cb
:1021b000204200006169000078610000210d0000ec
:1021c0000a0000000a4100004c4500005254000083
:1021d000413a000020540000656d00007065000069
:1021e00072610000747500007261000020410000ff
:1021f0006c740000612100000d0a0000005b00000b
:102200005354000041540000555300005d2000006d
:10221000546500006d70000065720000617400007c
:1022200075720000613a0000202500007520000052
:10223000430d00000a0000000a2d00002d2d0000b3
:10224000204c000045490000545500005241000058
:102250002044000045200000544500004d5000007f
:10226000455200004154000055520000412000003a
:102270002d2d00002d0d00000a0000002d2d000066
:102280002d2d00002d2d00002d2d00002d2d0000e6
:102290002d2d00002d2d00002d2d00002d2d0000d6
:1022a0002d2d00002d2d00002d2d00002d2d0000c6
:1022b0002d2d00002d2d00000d0a0000000a000049
:1022c000414c0000415200004d4500003a20000002
:1022d000546500006d7000006572000061740000bc
:1022e00075720000612000006372000069740000d4
:1022f0006963000061210000205300006973000041
:10230000746500006d6100002070000061720000c3
:10231000616400006f2e00000d0a00000000000044
:102320001111000022220000333300004444000059
:102330005555000066660000777700008888000029
:1023400099990000aaaa0000bbbb0000cccc0000f9
:10235000dddd0000eeee0000cecd0000acab0000f5
:10236000416c0000617200006d000000436f0000ce
:102370006e740000726f00006c00000041440000a9
:102380004300000055410000525400000057000077
:102390006174000063680000646f00006700000063
:1023a00004000000494400004c450000000000000b
:1023b000546d00007220000053760000630000009e
:020000040000fa
:1023c0001400fa002007980031079800420798008f
:1023d000530798006407980075079800060f980047
:1023e000170f98007e0090000000e00008003a00ff
:1023f00011028000f0f12f00008060000050a0006a
:10240000100288000000000000000000ffff3700fd
:102410000e0890000000e00008003a001102800061
:10242000f0f12f00008060000050a0001002880032
:102430000000000000000000ffff370060032000e4
:10244000100798009e00900060032000808f5000cd
:102450000800320011028000f0f12f0000806000bf
:102460000050a000100288000000000000000000e2
:10247000ffff37001e0090000e0890000000e000f3
:10248000190032007e0090000000e00016003200cb
:102490008e089000010f7800620320008000eb009e
:1024a0001e00780087f807001e007800fe009000ec
:1024b000410898001e00780021c0b30051709800b8
:1024c0008003eb001e0378009e0a90006e029000cd
:1024d000de0190004e019000be0090002e009000a2
:1024e00070000700020037000000eb00000f7800ca
:1024f0001e0078000080fa00000006001200fa00ba
:102500002007980031079800420798005307980069
:102510006407980075079800060f98000000eb000c
:10252000100798000e80e800800378000e0b9000e2
:10253000fe0290006e029000de0190004e019000bd
:10254000be0090002e0090009dff0700000f780055
:102550001e0078000000e000020032001e0078003b
:10256000c40007001e0090000080fa000000060072
:102570000e00fa0010079800210798003207980013
:1025800043079800540798006507980060032000ef
:102590000c280700000f78001e0078000000e00003
:1025a00012003200620320008000eb001e00780061
:1025b00044f807003e00900000004000012807009a
:1025c000800078001e007800410898001e00780006
:1025d000400890000000e00004003a001e0078006f
:1025e0002f2807000000eb00000f78001e00780085
:1025f0000000e0000c0032001e0078008040eb007c
:10260000517098008003eb001e037800ee029000ea
:102610005e029000ce0190003e019000ae0090005e
:102620001e0090001f0007001e0078000080fa00c6
:10263000000006001000fa002007980031079800fb
:1026400042079800530798006407980075079800a0
:10265000fe0290006e029000de0190004e0190009c
:10266000be0090002e009000c1ff070010079800e8
:102670001e0090000000e000050032001e009000e7
:102680007c00070010002000000f780002003700d7
:102690000080eb00000f78001e0078000080fa0038
:1026a000000006001400fa00200798003107980087
:1026b0004207980053079800640798007507980030
:1026c000060f9800170f98000e089000c0089000a1
:1026d000110798001e0090000000e8000000a10013
:1026e000100798001e009000610060000000e000ec
:1026f0000800320011028000f0f12f00008060001d
:102700000050a0001002880000000000000000003f
:10271000ffff37000e089000c00890004e009000a8
:102720000000e90000004000808040000e0890009a
:10273000511098003e0090000000e00018003200a8
:102740000000eb00000f78000d0037003e00900005
:102750001e004000904078000e0890001e004000cf
:102760007a004000014878003e0090001e004000c2
:10277000104078000004e000050032001e0fe80061
:102780001e007800ef0f5000f0ff36000100370008
:10279000000000000e0890008040eb0011689800d7
:1027a0006e009000e40f5000080036001102800017
:1027b000f0f12f00008060000050a000100288009f
:1027c0000000000000000000ffff37006e009000d6
:1027d000e40f50000200360040002000600798001f
:1027e0000e089000ee009000310898000e0890004e
:1027f000ee009000611098000e0890000080e80044
:10280000f52607000e0890006c004000f226070035
:102810000e0890008e089000410098006e00900015
:10282000e50010000e089000610098000e0890006e
:102830008e089000110898005e019000ae00900094
:102840001e00900023260700800078000e089000ec
:10285000010878007e0090000000e00003003200d4
:102860007e0090008e089000010878000080fa0039
:10287000000006000400fa001007980097260700e1
:10288000404080000000e800404088000040800098
:102890000000e00007003a009e0090000140880020
:1028a00040408000e10f50000d003a00bc080700d6
:1028b0000b003700704080000000e00008003a0084
:1028c00000408000b00890001e009000300890008a
:1028d000808f500002003e009e0090000140880062
:1028e000b04080000000e800b04088001e0090006a
:1028f000b008900060408000808f500003003600d8
:102900001e00900030089000604088001e0090007b
:10291000300890006a00b9008000780060832100d0
:102920000080400090009000010f78001e00900091
:102930009e007800210098001e007800a000900002
:102940001e009000310098001e00780020009000ca
:102950009e0090008180e800110098001e00900009
:102960008080e8001e007800210098001e00900082
:10297000300890006a00b900800078006083210070
:10298000808040001e009000510098001e009000c2
:10299000300890006a00b900800078006083210050
:1029a000008140001e009000300890006a00b900cd
:1029b00080007800608321000080400010007800d3
:1029c0000000e800000978005126070070408000f0
:1029d0000000e0000900320000408000b0089000d4
:1029e0001e00900030089000808f500003003100de
:1029f0007c64020000000000000000000080fa007b
:102a0000000006000800fa00300798000000eb0004
:102a1000000f7800312607003e0090000000e00023
:102a200002003a0000408000010037003e009000a4
:102a3000100798001e0090000080e800bd260700e7
:102a40001e009000200890000000e000030032000b
:102a50001e0090006c004000b6260700b0408000c9
:102a60000000e800b0408800004080009e00900018
:102a70000080680000f0a7000000ea000000e90004
:102a80004f00de0020079800704080000000e0004a
:102a90000e0032002e0090000000e0000b0032001b
:102aa0001e0090000080e80080007800608821000f
:102ab00050260700304080000000e80030408800c9
:102ac00010002000000f7800040037004040800014
:102ad0000000e90040408800860807000c26070037
:102ae0001e007800e10f5000020032001e0090002e
:102af0005f080700704080000000e0001200320014
:102b0000004080009e009000808f50000e003a0030
:102b1000e04080000000e000080032001102800068
:102b2000f0f12f00008060000050a000100288002b
:102b30000000000000000000ffff37007c6402007e
:102b400000000000000000000080fa000000060005
:102b50000c00fa0040079800510798000000eb00b5
:102b6000000f78004e0090000000e00008003a00de
:102b700011028000f0f12f00008060000050a000e2
:102b8000100288000000000000000000ffff370076
:102b90005e0090000000e00008003a001102800092
:102ba000f0f12f00008060000050a00010028800ab
:102bb0000000000000000000ffff370032030700a4
:102bc0005140800011079800e0408000e10f500064
:102bd0000800320011028000f0f12f000080600038
:102be0000050a0001002880000000000000000005b
:102bf000ffff37004e009000900078005e009000cc
:102c000000804000200798004e009000900078005f
:102c10001e009000808f50000c0036004e00900087
:102c2000900078002e009000808f50001200360037
:102c3000ae0090001e009000808f50000e00360005
:102c400010002000000f78000b0037004e009000ad
:102c5000900078002e009000808f500004003e000d
:102c6000ae0090001e009000808f500002003600e1
:102c700010002000000f78004e009000ae00900081
:102c8000010878001e0078000000e0000500320016
:102c9000ae0090001e009000008050008000eb000d
:102ca0001a0e0700fe020700300798003e00900051
:102cb0000000e00003003a007c6402000000000015
:102cc000000000001e0078000080fa0000000600ee
:102cd0000400fa00100798000000eb00000f7800d5
:102ce0001e0090000000e00011003200e602070024
:102cf000e0408000e10f5000080032001102800027
:102d0000f0f12f00008060000050a0001002880049
:102d10000000000000000000ffff37008000eb0013
:102d20001e009000f90d0700dd020700000f78007b
:102d30001e0078000000e00003003a007c640200fe
:102d400000000000000000000080fa000000060003
:102d50000600fa0020079800602507002e0090006a
:102d60000000e00002003a0000408000010037004f
:102d70002e009000000f78001e007800b008900030
:102d800011079800622507001e0090000080fa00dd
:102d9000000006000800fa00300798000000eb0071
:102da000000f78003e0090000000e00002003a00b2
:102db00000408000010037003e009000100798009e
:102dc0001e009000b0089000210798002e0090008f
:102dd0000080fa00000006000600fa0020079800b4
:102de0003e2507002e0090000000e00002003a009f
:102df00000408000010037002e009000000f780096
:102e00001e007800e0109000110798004025070090
:102e10001e0090000080fa00000006000800fa0082
:102e2000300798000000eb00000f78003e00900093
:102e30000000e00002003a0000408000010037007e
:102e40003e009000100798001e009000e0109000d7
:102e5000210798002e0090000080fa000000060074
:102e60000e00fa0050079800610798000000eb0080
:102e7000000f78006e009000e40f5000080036004c
:102e800011028000f0f12f00008060000050a000cf
:102e9000100288000000000000000000ffff370063
:102ea0006e009000e40f5000020036004000200049
:102eb00060079800092507005e0090000000e00010
:102ec00002003a0000408000010037005e009000e0
:102ed000100798001e009000e01090002107980055
:102ee000ae0090006e009000808f50007b0032009a
:102ef000ee0090002e009000808f50000c003600f5
:102f0000004080009e009000808f50000e00320034
:102f100000408000b00890006e009000808f50004c
:102f20000900310010002000000f78000600370073
:102f3000004080009e009000808f500002003a0008
:102f400010002000000f78001e009000b0089000d4
:102f5000310798001e009000e01090001e009000c5
:102f600030089000808f5000050032001e00900055
:102f7000b00890006e009000808f50000300310078
:102f80001e009000ee009000310898001e00900096
:102f9000ee009000611098001e009000600090000c
:102fa0000000e000040035006e009000e500100015
:102fb0001e009000610098001e00900050019000db
:102fc0003e0090006a00b900800078006083210014
:102fd00000804000800f51003a003a001e0090002f
:102fe0000080e800532507001e009000b008900004
:102ff00060408000808f5000030036001e0090006b
:1030000030089000604088001e009000300890005a
:103010006a00b900800078006083210000804000d1
:1030200090009000410798001e009000ce00900094
:10303000210098004e009000a00090001e0090001b
:10304000310098004e009000200090009e009000fb
:103050008180e800110098001e0090008080e80048
:103060004e009000210098001e0090003008900053
:103070006a00b900800078006083210080804000f1
:103080001e009000510098001e0090003008900033
:103090006a00b90080007800608321000081400050
:1030a0001e009000300890006a00b900800078008f
:1030b0006083210000804000100078000000e800dc
:1030c000000978001e0078000000e00003003200d4
:1030d0007c64020000000000000000008c24070057
:1030e0000080fa00000006000800fa00300798008f
:1030f0007a2407003e0090000000e00002003a0041
:1031000000408000010037003e009000100798004a
:103110001e0090000080e800062507001e009000b9
:10312000200890000000e000030032001e00900024
:103130006c004000ff2407001e0090000080e800a3
:103140008000780000892100aa2407000000eb001d
:10315000000f78000c0037009e0090004203200012
:103160001e00410061407800e14f500005003a0028
:103170001e0090001e0040004003b0008040eb00a5
:10318000014878001e0fe8001e0078000000e000f3
:10319000f1ff34005e240700704080000000e00072
:1031a000030032004d240700d20607005824070010
:1031b000004080009e009000808f50001b003a006d
:1031c000704080000000e0000f003200e04080000e
:1031d0000000e0000800320011028000f0f12f0032
:1031e000008060000050a000100288000000000075
:1031f00000000000ffff37007c64020000000000b8
:10320000000000000900370081c4800021079800f9
:1032100040408000ae009000808f500002003a00d5
:103220000028ef0001003700c50307000080fa0006
:10323000000006000800fa00300798000000eb00cc
:10324000000f7800be009000210798003e0090001b
:103250000000e00008003a0011028000f0f12f00a9
:10326000008060000050a0001002880000000000f4
:1032700000000000ffff37002e009000d0009000fb
:1032800000892100808f50001d003a002e00900020
:10329000a0089000c0872100808f500018003200e5
:1032a0002e009000200890000000e00014003a007a
:1032b00010002000000f78000000eb0010079800bd
:1032c0000c003700ae0090001e0090004003b000dc
:1032d00061407800e14f500003003a000000eb002d
:1032e000000f7800060037001e0090000000e80084
:1032f000100798001e0090000000e000f1ff34006d
:103300001e0078000080fa00000006000600fa00a7
:1033100020079800ae009000010f78002e0090006a
:103320000000e00008003a0011028000f0f12f00d8
:10333000008060000050a000100288000000000023
:1033400000000000ffff3700004080009e00780072
:10335000808f5000490032001e0078000000e0001d
:1033600046003200dd2307001e007800b1ff070091
:103370000000e000400032001e80e8006d240700dd
:103380001e007800b008900060408000808f5000e0
:10339000030036001e00780030089000604088006e
:1033a0001e007800300890006a00b90080007800a4
:1033b0006083210000804000900090001107980079
:1033c0001e0078009e009000210098001e009000d2
:1033d000a00090001e007800310098001e009000b0
:1033e000200090009e80e800110098009e80e80078
:1033f0001e009000210098001e0078003008900008
:103400006a00b9008000780060832100808040005d
:103410001e007800510098001e00780030089000cf
:103420006a00b900800078006083210000814000bc
:103430001e007800300890006a00b9008000780013
:103440006083210000804000100078000000e80048
:103450000009780000408000b00890001e0078004d
:1034600030089000808f5000030031007c6402001f
:103470000000000000000000a52307000080fa0003
:10348000000006000a00fa00400798000000eb0068
:10349000000f7800ce009000110798004e009000b9
:1034a0000000e00008003a0011028000f0f12f0057
:1034b000008060000050a0001002880000000000a2
:1034c00000000000ffff37000000eb00200798001d
:1034d0001e00900057ff07000000e0004d00320082
:1034e000e04080000000e00045003a001e0090002f
:1034f000b00890000040800030089000808f50009d
:103500000400360010002000000f7800100020009a
:10351000904088001e0090000080e800052407000d
:103520001e009000b008900060408000808f500026
:10353000030036001e0090003008900060408800b4
:103540001e009000300890006a00b90080007800ea
:1035500060832100008040009000900031079800b7
:103560001e009000be009000210098003e009000d8
:10357000a00090001e009000310098003e009000d6
:10358000200090009e0090008180e80011009800cb
:103590001e0090008080e8003e009000210098000e
:1035a0001e009000300890006a00b900800078008a
:1035b00060832100808040001e0090005100980030
:1035c0001e009000300890006a00b900800078006a
:1035d00060832100008140001e00900030089000b0
:1035e0006a00b900800078006083210000804000fc
:1035f000100078000000e80000097800050037009e
:103600001e0090006c00400080007800c087210000
:10361000782307001e0078000080fa0000000600f2
:103620001e00fa0010002000000f78000000eb00e0
:10363000300798000000eb002007980011003700c9
:10364000211d29002e00900000804000904078004d
:10365000680147002e0090000000410001487800fa
:10366000e80047002e0090000080400010407800e5
:103670000004e000070032002e0090000000e80087
:10368000200798002e009000ef0f5000ecff340050
:1036900001003700000000000000eb001007980058
:1036a0002e003700805b2200300798000000eb00fe
:1036b000400f98000000eb00500f98007c0147007d
:1036c000fa00470078004700d70b0700ce099000aa
:1036d0005e099000ee089000680047000303780040
:1036e000820278000002eb008001eb00010178000b
:1036f000800078003e00900080fb0700800078008a
:103700001e00900000014000a08120000000410048
:10371000010878001e00900080004000a081200079
:1037200000804000100078000000e000030032003c
:1037300010002000000f7800020037000000eb00ae
:10374000000f78001e0078000000e0000700320043
:103750001e0090000000e800100798001e00900076
:103760000000e000cfff340001003700000000003f
:103770001e0078000080fa00000006000200fa0037
:10378000a7ff0700000f78001e007800e10f50002f
:1037900002003a00621a0700000f78001e0078004d
:1037a000e10f50000e003a0011028000f0f12f00ee
:1037b000008060000050a00010028800000000009f
:1037c000000000000080eb00c040880010002000d6
:1037d000704088000a28ef00862207000b0037009f
:1037e0001e007800e10f400008003a00110280003e
:1037f000f0f12f00008060000050a000100288004f
:103800000000000000000000ffff3700808e8400f1
:103810000080fa00000006000200fa00551b0700b5
:1038200078fc07000000eb00000f7800070037006d
:103830001e00780080004000a08120000080400031
:10384000100078006ffc07001e0fe8001e007800d3
:103850000000e000f6ff3400ef04070011028000d2
:10386000f0f12f00008060000050a00010028800de
:1038700000000000000000000e28ef007422070086
:103880000080fa00000006000000fa00e04080001e
:103890000000e800e04088000080fa000000060018
:1038a0000e00fa000000eb00000f78000000eb00b3
:1038b00010079800892207000000eb0030079800ed
:1038c000e04080000000e00008003a0011028000a3
:1038d000f0f12f00008060000050a000100288006e
:1038e0000000000000000000ffff3700e040800003
:1038f0000000e900e0408800e04080000000e000b7
:10390000ae003a00404080000000e000ab00320012
:103910008100370010c4800030009000000f780054
:103920001e007800a0089000410798001e00780053
:10393000700090009e00780081089000210098009f
:103940001e007800000890009e007800f1009000b2
:10395000110098004e009000900090001e01780029
:103960006c004100808f500004003a001e00780077
:10397000800890004e009000110098001e00780012
:103980008000eb00210898004e00900010007800a5
:103990008000e9004e009000010878001e007800c9
:1039a000d0009000510798001e0078002000900081
:1039b0009e007800b1009000210098001e00780061
:1039c000300090009e007800a10090001100980047
:1039d0005e009000900090001e80e800808f5000f4
:1039e00004003a001e007800b00090005e009000d5
:1039f000110098001e0078008000eb005100980034
:103a00005e009000100078008000e9005e009000e9
:103a1000010878001e007800b00890006040800027
:103a2000808f5000030036001e00780030089000a0
:103a3000604088001e007800300890006a00b900dd
:103a40008000780060832100008040001001900019
:103a5000620798001e007800ee0090002100980098
:103a60006e009000a00090001e00780031009800c9
:103a70006e009000200090009e80e80011009800e9
:103a80009e80e8006e009000210098001e007800e3
:103a9000300890006a00b90080007800608321003f
:103aa000808040001e007800510098001e007800c1
:103ab000300890006a00b90080007800608321001f
:103ac000008140001e007800300890006a00b900b4
:103ad00080007800608321000080400010007800a2
:103ae0000000e800000978001e007800b00890008f
:103af0000040800030089000808f500006003600a3
:103b00003e009000800040002081200000804000a6
:103b10001100200001087800e0c380000000e000f0
:103b20007cff3a001e0078000000e0000100320037
:103b30007004070082408000220798002e00900049
:103b40000000e00010003200a50007000000e000c7
:103b5000060032003e0090008000400020812000de
:103b60000080400011002000010878002e00900025
:103b70000000e900200798002e0090000000e000ff
:103b8000f1ff3a001028ef003e0090008000400056
:103b90002081200000804000100078000000e0003c
:103ba000060032001000200010079800004080003e
:103bb0007c6402000000000000000000d421070027
:103bc0001e0090000080fa00000006000200fa00cb
:103bd00051408000010f78001e0078000080fa003c
:103be000000006000400fa000000eb00000f78005f
:103bf00051408000110798001e0090000080fa00dc
:103c0000000006000000fa00404080000080fa003a
:103c1000000006000400fa00100798001e00900043
:103c20000000e00002003a00004080000100370080
:103c30001e009000000f78001e0078000000e000d9
:103c400008003a0011028000f0f12f0000806000af
:103c50000050a000100288000000000000000000da
:103c6000ffff37009e0078007a8040000080fa0055
:103c7000000006000a00fa002007980031079800ab
:103c8000420798003e0090000000e00008003a0063
:103c900011028000f0f12f00008060000050a000b1
:103ca000100288000000000000000000ffff370045
:103cb0004e0090000000e00008003a001102800071
:103cc000f0f12f00008060000050a000100288007a
:103cd0000000000000000000ffff37002e009000f1
:103ce0000000e00002003a000040800001003700c0
:103cf0002e009000100798001e0090005070900059
:103d0000e24f50000a003a001e009000c0089000e8
:103d10003e009000010878009e0090004e00900048
:103d20000108780010002000000f78001000370014
:103d30001e00900050709000e14f50000a003a00c1
:103d40001e009000c00890003e009000010878001e
:103d50004e0090008000eb00010878001000200069
:103d6000000f7800020037000000eb00000f780021
:103d70001e0078000080fa00000006000400fa002f
:103d800010079800e04080000000e00008003200ca
:103d900011028000f0f12f00008060000050a000b0
:103da000100288000000000000000000ffff370044
:103db000b5fe070049210700814080001e009000e9
:103dc000008040008040880051210700b4fe0700b9
:103dd000000f78001e0078000080fa000000060046
:103de0001000fa000000eb00000f7800e0408000b7
:103df0000000e000cc003a00504080000000e800e5
:103e0000100798009e009000514088001e0090000e
:103e10000000e00016003a0010408000100078001a
:103e20000000e0000800320011028000f0f12f00d5
:103e3000008060000050a000100288000000000018
:103e400000000000ffff37001140800021079800ac
:103e50002040800010408800ae0090002140880083
:103e6000a04080000000e800a0408800a1030700f7
:103e7000c04080009e009000808f50009900390063
:103e800001003700000000001040800010007800a2
:103e90000000e00003003a000080eb00c040880012
:103ea00090003700104080003000900030009000fb
:103eb000300798003e009000900090004107980065
:103ec0009e0090004e009000808f50000300310053
:103ed000ce009000c1408800820037003e00900074
:103ee000d0009000510798003e0090002000900004
:103ef000be009000b1009000210098003e009000ac
:103f000030009000be009000a100900011009800c9
:103f10005e009000900090003e0090000080e8005d
:103f2000808f500004003a003e009000b0009000e6
:103f30005e009000110098003e0090008000eb00b1
:103f4000510098005e009000100078008000e900a9
:103f50005e009000010878003e009000200890006c
:103f60000000e0001f0032003e009000a00890001a
:103f7000610798003e00900070009000be00900025
:103f800081089000210098003e00900000089000f9
:103f9000be009000f1009000110098006e009000ab
:103fa000900090003e0090006c004000808f500018
:103fb00004003a003e009000800890006e009000df
:103fc000110098003e0090008000eb00210898004e
:103fd0006e009000100078008000e9006e009000f4
:103fe000010878003e009000b0089000604080001a
:103ff000808f5000030036003e0090003008900093
:10400000604088003e009000300890006a00b900cf
:1040100080007800608321000080400090009000c4
:10402000710798003e009000fe009000210098006b
:104030007e009000a00090003e00900031009800ab
:104040007e00900020009000be0090008180e8007b
:10405000110098003e0090008080e8007e009000f3
:10406000210098003e009000300890006a00b900de
:104070008000780060832100808040003e00900036
:10408000510098003e009000300890006a00b9008e
:104090008000780060832100008140003e00900095
:1040a000300890006a00b900800078006083210029
:1040b00000804000100078000000e800000978004f
:1040c0003e009000b0089000004080003008900052
:1040d000808f50006bff360010002000000f78002a
:1040e00069ff370000408000300890006a00b90086
:1040f000800078006083210000804000100078007c
:10410000e10f50000200360010002000000f780080
:10411000904080000000e000060032001000200007
:10412000000f780003003700804080000000e800a6
:10413000804088001e0078000080fa000000060021
:104140000400fa00e04080000000e00003003200bc
:104150001000200090408800340037001228ef0043
:1041600061408000010f78000c0037001e007800cd
:104170000000e00008003a0011028000f0f12f007a
:10418000008060000050a0001002880000000000c5
:1041900000000000ffff37001e0fe9001e0078003e
:1041a0006a00b90080007800608321000080400030
:1041b000100078000000e000ecff32001e007800e4
:1041c0006a00b90080007800608321000080400010
:1041d000100798001e0090001000900090009000c2
:1041e0001e009000110098001e00900090009000aa
:1041f0001e00900064004000808f500004003a00d0
:104200001e009000b00090001e0090001100980069
:104210001e009000100090003000900000408800c8
:104220009e00780061408800004080000080fa0015
:10423000000006000400fa00000f78001107980043
:104240001e0078000000e00008003a001102800023
:10425000f0f12f00008060000050a00010028800e4
:104260000000000000000000ffff37000040800059
:104270006c004000800078001e0078007b20070062
:10428000110020001e009000a00807000080fa0026
:10429000000006000800fa001007980021079800a7
:1042a000320798001e0090000000e00008003a006d
:1042b00011028000f0f12f00008060000050a0008b
:1042c000100288000000000000000000ffff37001f
:1042d000e04080000000e00008003a001102800089
:1042e000f0f12f00008060000050a0001002880054
:1042f0000000000000000000ffff370000408000c9
:10430000ae00900001f0a000610098001e00900037
:1043100090009000010f7800004080009e0078001f
:1043200071009800004080009e007800a10090007d
:10433000010898001e0078002000900001408000d5
:10434000ec8040001100980000408000ec0040002c
:104350001e00780021009800004080009e00900020
:10436000210898001e009000100078008000e800ee
:104370001e00900001087800110020003e0090000f
:10438000620807000080fa00000006000800fa003a
:104390001007980021079800320798001e0090002f
:1043a0000000e00008003a0011028000f0f12f0048
:1043b000008060000050a000100288000000000093
:1043c00000000000ffff37001e00900090009000ea
:1043d000010f7800004080009e0078007100980076
:1043e000004080009e007800a10090000108980025
:1043f0001e0078002000900001408000ec8040000a
:104400001100980000408000ec0040001e00780081
:1044100021009800004080009e0090002108980034
:104420001e009000100078008000e8001e00900040
:10443000010878003e0090000000e0000200320019
:104440000080eb0020079800be0090002e00900036
:104450002e0807000080fa00000006000e00fa0097
:10446000600798006e0090003000900030009000cf
:10447000100798001e0090000000e00008003a00bd
:1044800011028000f0f12f00008060000050a000b9
:10449000100288000000000000000000ffff37004d
:1044a0001e009000a0089000210798001e009000b8
:1044b000700090009e0090008108900021009800fc
:1044c0001e009000000890009e009000f1009000f7
:1044d000110098002e009000900090001e009000a7
:1044e0006c004000808f500004003a001e009000d5
:1044f000800890002e009000110098001e0090008f
:104500008000eb00210898002e0090001000780039
:104510008000e9002e00900001087800e040800053
:104520000000e00057003a001e009000d00090000c
:10453000310798001e009000200090009e0090001f
:10454000b1009000210098001e0090003000900003
:104550009e009000a1009000110098003e00900085
:10456000900090001e0090000080e800808f5000b6
:1045700004003a001e009000b00090003e00900041
:10458000110098001e0090008000eb005100980080
:104590003e009000100078008000e9003e0090008e
:1045a000010878001e009000b00890006040800074
:1045b000808f5000030036001e00900030089000ed
:1045c000604088001e009000300890006a00b9002a
:1045d00080007800608321000080400090009000ff
:1045e000410798001e009000ce0090002100980026
:1045f0004e009000a00090001e0090003100980036
:104600004e009000200090009e0090008180e80005
:10461000110098001e0090008080e8004e0090007d
:10462000210098001e009000300890006a00b90038
:104630008000780060832100808040001e00900090
:10464000510098001e009000300890006a00b900e8
:104650008000780060832100008140001e009000ef
:10466000300890006a00b900800078006083210063
:1046700000804000100078000000e8000009780089
:1046800018003700f1c38000510798001e00900009
:10469000de009000710098005e009000a000900085
:1046a0001e009000010898005e009000200090001d
:1046b0009e009000ec804000110098001e009000c9
:1046c000ec0040005e009000210098001e00900069
:1046d000c187210021089800e0c380000000e800a5
:1046e000e0c388001e009000b008900000408000e9
:1046f00030089000808f5000050036001000200028
:10470000000f780010002000904088000200370061
:104710000000eb00000f78001e0078000080fa0017
:10472000000006000c00fa004007980051079800ae
:10473000e04080000000e00008003a001102800024
:10474000f0f12f00008060000050a00010028800ef
:104750000000000000000000ffff37005e00900036
:104760008000780001f0a0004e0090000108780061
:104770004e00900030009000000f78001e0078007e
:104780000000e00008003a0011028000f0f12f0064
:10479000008060000050a0001002880000000000af
:1047a00000000000ffff37004e009000c0009000a6
:1047b000110798004e00900010009000ce0090006d
:1047c000a1009000210098004e0090002000900071
:1047d000ce00900091009000110098001e00900003
:1047e000900090004e009000808f500004003a002e
:1047f0004e009000a00090001e0090001100980054
:104800004e0090008000eb00410098001e009000d8
:10481000100078008000e9001e0090000108780078
:104820001e007800d0009000210798001e0078003c
:10483000200090009e007800b100900021009800b8
:104840001e007800300090009e007800a1009000cb
:10485000110098002e009000900090001e80e8004b
:10486000808f500004003a001e007800b0009000d5
:104870002e009000110098001e0078008000eb00d0
:10488000510098002e009000100078008000e90090
:104890002e009000010878001e007800b0089000fb
:1048a00060408000808f5000030036001e007800ba
:1048b00030089000604088001e00780030089000aa
:1048c0006a00b90080007800608321000080400009
:1048d00090009000310798001e007800be00900004
:1048e000210098003e009000a00090001e0078007b
:1048f000310098003e009000200090009e80e8006b
:10490000110098009e80e8003e0090002100980071
:104910001e007800300890006a00b900800078001e
:1049200060832100808040001e00780051009800c4
:104930001e007800300890006a00b90080007800fe
:1049400060832100008140001e0078003008900044
:104950006a00b90080007800608321000080400078
:10496000100078000000e800000978001e007800c0
:10497000b00890000040800030089000808f500008
:104980000200360010002000904088000080fa00ed
:10499000000006000200fa00000f78001e007800f8
:1049a0000000e00008003a0011028000f0f12f0042
:1049b000008060000050a00010028800000000008d
:1049c00000000000ffff3700441e0700a1408000e8
:1049d0001e00780001087800514080001e00780019
:1049e000110098004a1e07000080fa00000006002f
:1049f0000200fa00000f7800a14080001e0078003d
:104a000001087800514080001e00780011009800d5
:104a10000080fa00000006000a00fa003007980043
:104a2000410798003e0090000000e00008003a00b6
:104a300011028000f0f12f00008060000050a00003
:104a4000100288000000000000000000ffff370097
:104a50004e0090000000e00008003a0011028000c3
:104a6000f0f12f00008060000050a00010028800cc
:104a70000000000000000000ffff3700171e0700c5
:104a800051408000110798003e00900010009000f7
:104a90009e00900000805000200798004e0090007b
:104aa00010007800e10f400003003a000000eb0026
:104ab000000f7800250037003e009000900078003d
:104ac000a0408000808f50000b0032003e0090001c
:104ad000900090001e009000808f500006003e0065
:104ae00010002000000f78004e0090008000eb00c6
:104af00001087800150037004e0090009000780003
:104b00002e009000808f50000b0036004e00900069
:104b1000900078002e009000808050004e009000a1
:104b2000010878003e009000b1ff07000000eb0094
:104b3000000f7800050037004e0090008000eb0069
:104b40000108780010002000000f7800f01d070019
:104b50001e0078000080fa00000006000000fa0045
:104b600010002000904088000080fa00000006003d
:104b70000200fa00000f780001003700000000007a
:104b800025000700b0c18000e10f5000fbff360098
:104b90007c6402000000000000000000f8ff370005
:104ba0000200fa000000eb00000f78000700370059
:104bb0001e0078006a00b900800078006083210040
:104bc00000804000eb1d07001e0fe8001e0078006b
:104bd000e40f5000f6ff360080862100e51d070037
:104be00020872100e31d0700c0872100e11d070089
:104bf00060882100df1d070000892100dd1d0700fe
:104c000080862100104088002087210020408800f5
:104c10000080fa00000006000200fa000f003700d2
:104c2000ae1d070060c4800030009000000f7800c7
:104c30001e80e8003f1e0700404080000000e900a1
:104c400040408800304080000000e900304088008b
:104c5000af1d07001e0078000500070030408000ef
:104c60000000e000eeff3a000080fa0000000600bd
:104c70000200fa00000f78001e00780050709000cb
:104c80000004e00006003a001e0078004008900092
:104c9000831e07001e007800811e070013003700e6
:104ca0001e00780050709000e14f500003003a0061
:104cb0001e0078007a1e07000c0037001e007800e6
:104cc00050709000e24f5000080032001102800046
:104cd000f0f12f00008060000050a000100288005a
:104ce0000000000000000000ffff37000080fa0015
:104cf000000006000000fa0010408000100078005c
:104d00000000e00003003a000080eb00c040880093
:104d10000400370010408000300090001000780040
:104d2000c04088000080fa00000006000200fa007f
:104d300001408000010f78001e0078000080fa001a
:104d4000000006000400fa00100798000000eb00c5
:104d5000000f78001e0090000000e00002003a0002
:104d600001408000010f78001e0078000080fa00ea
:104d7000000006000200fa00704080000000e00021
:104d800003003a0010002000000f780008003700f0
:104d9000e04080000000e00003003a002000200016
:104da000000f7800020037000000eb00000f7800d1
:104db0001e0078000080fa00000006000800fa00db
:104dc00030079800be009000110798000000eb002b
:104dd000000f78003e0090000000e0006700320005
:104de0001e009000b0089000004080003008900045
:104df000808f5000590031001e009000600090002c
:104e00000000e00005003500004080003008900000
:104e1000e50010001e009000610098001e00900048
:104e2000500190001e009000300890006a00b90008
:104e3000800078006083210000804000800f5100d6
:104e40003f003a001e0090000080e800b91d0700f6
:104e500000408000b00890001e00900031089800cb
:104e60001e009000b008900060408000808f5000cd
:104e7000030036001e00900030089000604088005b
:104e80001e009000300890006a00b9008000780091
:104e9000608321000080400090009000210798006e
:104ea0001e009000ae009000210098002e0090009f
:104eb000a00090001e009000310098002e0090008d
:104ec000200090009e0090008180e8001100980072
:104ed0001e0090008080e8002e00900021009800c5
:104ee0001e009000300890006a00b9008000780031
:104ef00060832100808040001e00900051009800d7
:104f00001e009000300890006a00b9008000780010
:104f100060832100008140001e0090003008900056
:104f20006a00b900800078006083210000804000a2
:104f3000100078000000e800000978000400370045
:104f400000408000b00890001e00900031089800da
:104f500010002000000f7800080037001e009000ad
:104f6000e01090000040800030089000808f5000da
:104f70000200310010002000000f78001e007800b1
:104f80000080fa00000006000800fa0030079800d0
:104f9000be009000110798000000eb00000f7800a1
:104fa0003e0090000000e0006c00320000408000f5
:104fb0009e009000808f5000080032001102800097
:104fc000f0f12f00008060000050a0001002880067
:104fd0000000000000000000ffff37001e009000ee
:104fe000701090000000e00008003a0011028000fc
:104ff000f0f12f00008060000050a0001002880037
:105000000000000000000000ffff37001e009000bd
:10501000701090008000e9001e0090007110980050
:105020001e009000b00890001e00900060109000dc
:10503000808f5000490032001e00900070109000d8
:105040000000e00045003a001e0090000080e800eb
:10505000381d07001e009000e01090001e00900018
:10506000310898001e00900030089000e500100004
:105070001e009000610098001e009000b008900093
:1050800060408000808f5000030036001e009000ba
:1050900030089000604088001e00900030089000aa
:1050a0006a00b90080007800608321000080400021
:1050b00090009000210798001e009000ae00900024
:1050c000210098002e009000a00090001e0090008b
:1050d000310098002e009000200090009e0090006b
:1050e0008180e800110098001e0090008080e80098
:1050f0002e009000210098001e00900030089000c3
:105100006a00b90080007800608321008080400040
:105110001e009000510098001e0090003008900082
:105120006a00b9008000780060832100008140009f
:105130001e009000300890006a00b90080007800de
:105140006083210000804000100078000000e8002b
:105150000009780010002000000f78001e00780081
:105160000080fa00000006000e00fa0050079800c8
:1051700061079800de0090001107980010002000e1
:10518000200798005e0090000000e0007d003200e3
:105190001e009000701090000000e00008003a002f
:1051a00011028000f0f12f00008060000050a0008c
:1051b000100288000000000000000000ffff370020
:1051c0001e009000e01090006e009000808f500054
:1051d000030031006e019000020f780003003700d9
:1051e0001e009000e0109000010f78001e0090005b
:1051f000300890009e0f5000620032001e009000a8
:10520000f01090002e009000808f50005d003a005a
:10521000004080009e009000808f500008003a00ff
:1052200011028000f0f12f00008060000050a0000b
:10523000100288000000000000000000ffff37009f
:105240001e00900030099000320798001e00900068
:105250009e007800310898001e00900060009000c9
:105260000000e00004003500520020009e005100c4
:105270001e009000610098001e00900050019000f8
:105280003e0090006a00b900800078006083210031
:1052900000804000800f51003a003a001e0090004c
:1052a0000080e800a31c07001e009000b0089000da
:1052b00060408000808f5000030036001e00900088
:1052c00030089000604088001e0090003008900078
:1052d0006a00b900800078006083210000804000ef
:1052e00090009000410798001e0090004e01900031
:1052f000220098004e009000a00090001e00900038
:10530000310098004e009000200090009e00900018
:105310008180e800110098001e0090008080e80065
:105320004e009000210098001e0090003008900070
:105330006a00b9008000780060832100808040000e
:105340001e009000510098001e0090003008900050
:105350006a00b9008000780060832100008140006d
:105360001e009000300890006a00b90080007800ac
:105370006083210000804000100078000000e800f9
:10538000000978000080fa00000006000200fa0020
:1053900000408000e0009000010f78000040800095
:1053a00001408000b1089000e58010006100980085
:1053b0001e0078000080fa00000006000200fa00db
:1053c00001408000010f78001e0078000000e0001e
:1053d000050032001e007800701090008000e80088
:1053e0001e007800711098001e0078000080fa00fe
:1053f000000006000e00fa004007980051079800d0
:10540000620798000000eb00000f78004e0090004b
:105410000000e0000800320011028000f0f12f00cf
:10542000008060000050a000100288000000000012
:1054300000000000ffff370013f90700a71b07005b
:10544000014080004e0090006c0040004200dd00f2
:10545000008040001000be00e00f5000e08f5800b8
:105460000b003a00014080004e0090000080400098
:105470004003b00011c0b300014878006e009000f6
:105480000000e0000200320010002000000f780051
:105490009f1b07001e007800e10f500003003a0038
:1054a000110020006e00900018040700fcf80700af
:1054b000100798001e007800e10f500006003a0027
:1054c0001e0090000000e00003003a007c6402002f
:1054d0000000000000000000801b07000140800069
:1054e0004e0090006c0040004200dd000080400053
:1054f0001001be0022079800330798002e0090008c
:10550000be009000e00f5000e08f58001500320000
:105510005e0090000000e0000800320001408000c2
:105520004e0090006c0040004200dd000081400011
:105530006000b8000089be000a0037000340800008
:105540002e009000be00900061005000e0805800e6
:105550004e0190006c0141004211dd0002814100ca
:105560000089be00014080004e0090000080400095
:105570004003b0008040eb0001487800641b070046
:105580002e009000be0090000080fa00000006008f
:105590001400fa00889fbe008a9fbe003007980062
:1055a0004207980053079800640798007507980011
:1055b000010f9800160f98000000eb0010079800ec
:1055c0003e0090000000e000080032001102800060
:1055d000f0f12f00008060000050a0001002880051
:1055e0000000000000000000ffff3700a6f80700e1
:1055f0003a1b0700014080003e0090004003b000cd
:1056000061407800e24f50002300320004408000e7
:105610003e0090006c0040004200dd0000004200af
:105620001001be004e009000de0090000080ea00f5
:105630008180ea008202780003017800800178000e
:10564000810078000380620081006100810578009c
:10565000000578000a00be003e0190006c01410088
:105660004211dd00020142000089be0001408000bd
:105670003e009000008040004003b00011c0b30025
:10568000014878001e0890000000e000020032008f
:1056900010002000100798001d1b07001e0090003e
:1056a000e10f500003003a00110020001e08900096
:1056b000960307007af80700200798001e00900064
:1056c000e10f500006003a002e0090000000e000bc
:1056d00003003a007c6402000000000000000000ab
:1056e000fe1a07000e0890000000e00008003200db
:1056f000014080003e0090006c0040004200dd0050
